S0100000506F73744C6162322E737265632D
S11300000C94B1000C94CE000C94CE000C94CE0051
S11300100C94CE000C94CE000C94CE000C94CE0024
S11300200C94CE000C94CE000C94CE000C94CE0014
S11300300C94CE000C94CE000C94CE000C94CE0004
S11300400C94CE000C94CE000C94B3020C94CE000D
S11300500C94CE000C94F9010C94CE000C94CE00B8
S11300600C94CE000C94CE0000407A10F35A00A0F9
S1130070724E18090010A5D4E80000E8764817006D
S113008000E40B54020000CA9A3B000000E1F505AD
S1130090000080969800000040420F000000A086F7
S11300A001000000102700000000E8030000000029
S11300B06400000000000A000000000001000000CD
S11300C000002C76D888DC674F0823DFC1DFAE59E7
S11300D0E1B1B796E5E3E453C63AE651997696E87A
S11300E0E6C28426EB898C9B62ED407C6FFCEFBCFE
S11300F09C9F40F2BAA56FA5F490055A2AF75C9329
S11301006B6CF9676DC11BFCE0E40D47FEF520E65E
S1130110B500D0ED902E0300943577050080841E41
S1130120080000204E0A000000C80C333333330F9C
S1130130986E12831141EF8D2114893BE65516CF39
S1130140FEE6DB18D1844B381BF77C1D901DA4BB45
S1130150E424203284725E228100C9F124ECA1E5FA
S11301603D2711241FBECFEFD8E0DEBFCDBF11E085
S1130170A0E0B1E0E8EDFEE002C005900D92A836E3
S1130180B107D9F721E0A8E6B1E001C01D92AD386E
S1130190B207E1F70E94F6010C946A070C94000080
S11301A090E490937C00882331F0ECE7F0E08081C8
S11301B08062808305C0ECE7F0E080818F7D8083DE
S11301C0ECE7F0E080814770482B408388E8809317
S11301D07A00603831F4EAE7F0E080818760808358
S11301E005C0EAE7F0E0808187608083EAE7F0E019
S11301F08081806480830895ECE7F0E09081907FB3
S1130200908390819064908390818770982B9083E1
S1130210662321F08081806280830895ECE7F0E01A
S113022080818F7D8083089580FF04C09BB194609A
S11302309BB903C09BB19B7F9BB981FF04C09BB159
S113024098609BB903C09BB1977F9BB982FF04C0A0
S11302509BB190619BB903C09BB19F7E9BB983FF07
S113026004C09BB190629BB903C09BB19F7D9BB9B5
S113027084FF04C09BB190649BB903C09BB19F7B76
S11302809BB985FF04C09BB190689BB903C09BB127
S11302909F779BB986FF04C095B1916095B903C05F
S11302A095B19E7F95B9882324F485B1826085B980
S11302B0089585B18D7F85B9089598B19E7F98B9C9
S11302C00E94140188B1846088B98FE79EE3019786
S11302D0F1F700C0000088B18B7F88B908958AB116
S11302E08C6F8AB98BB183708BB984B1836084B904
S11302F085B18C7F85B987B1876087B988B1887FDC
S113030088B980E00E9414012FEF89EF90E021501A
S113031080409040E1F700C0000080E30E945D014E
S11303208FE19EE40197F1F700C0000080E30E9492
S11303305D018FE19EE40197F1F700C0000080E3C6
S11303400E945D018FE99FE00197F1F700C0000072
S113035088E30E945D0188E00E945D0181E00E94C3
S11303605D018FED9EE20197F1F700C0000086E089
S11303700E945D018CE00E945D01089598B1916036
S113038098B90E94140188B1846088B98FE79EE30C
S11303900197F1F700C0000088B18B7F88B90895F8
S11303A0CF93DF93EC0103C021960E94BE018881A4
S11303B08111FACFDF91CF910895613011F4815802
S11303C001C081540E945D010895F8940E946F0158
S11303D087E60E94110343E060E880E00E94D000B9
S11303E080E091E00E942C03789408950E94E50136
S11303F0FFCF1F920F920FB60F9211240F931F93EA
S11304002F933F934F935F936F937F938F939F9318
S1130410AF93BF93EF93FF9380916901813021F0F3
S1130420823009F443C068C08091780090917900CB
S113043090937C0180937B0160917B0170917C019E
S113044080E090E00E94B10320E030E040EA50E414
S11304500E943F0420E030EC4FE754E40E943F0345
S11304606093890170938A0180938B0190938C012E
S11304700AE611E022E044E00E94AC0461E082E07C
S11304800E94DD0181E291E00E94D00162E081E0FE
S11304900E94DD01C8010E94D00185E291E00E9422
S11304A0D00160E084E00E94FC002CC080917800C0
S11304B090917900909388018093870180918701BE
S11304C0909188014AE06DE771E00E94CC0461E0FC
S11304D088E00E94DD0187E291E00E94D00162E0A1
S11304E087E00E94DD018DE791E00E94D00180E465
S11304F091E00E94D00106C01092690160E083E09F
S11305000E94FC0080916801811110C061E08DE0BF
S11305100E94DD018BE291E00E94D00162E08DE057
S11305200E94DD018FE291E00E94D0018091690177
S11305308F5F80936901EAE7F0E0808180648083C3
S1130540FF91EF91BF91AF919F918F917F916F91A7
S11305505F914F913F912F911F910F910F900FBE7B
S11305600F901F9018951F920F920FB60F9211249F
S11305702F933F934F935F936F937F938F939F93A7
S1130580AF93BF93EF93FF938091C60080937A015A
S113059080917A018B3231F4809168018F5F80936E
S11305A068010EC080917A018D3231F48091680126
S11305B081508093680104C081E391E00E942C0380
S11305C0809168014AE06DE771E090E00E94CC04FC
S11305D061E08DE00E94DD018CE391E00E94D00196
S11305E062E08DE00E94DD018DE791E00E94D00180
S11305F08FE391E00E94D00183E491E00E942C03F8
S1130600FF91EF91BF91AF919F918F917F916F91E6
S11306105F914F913F912F910F900FBE0F901F90BC
S113062018959AB192609AB99AB19E7F9AB910922C
S1130630C00098E99093C10096E09093C20090E0C6
S11306409093C5008093C40008959091C00095FFD5
S1130650FCCF8093C60008950F931F93CF938C0112
S1130660C0E003C00E942503CF5FF801EC0FF11D29
S113067080818111F7CFCF911F910F9108950E942E
S113068053030C9405040E94FE0358F00E94F703E0
S113069040F029F45F3F29F00C94EE0351110C94BF
S11306A039040C94F4030E94160468F39923B1F3FB
S11306B0552391F3951B550BBB27AA276217730784
S11306C0840738F09F5F5F4F220F331F441FAA1F18
S11306D0A9F335D00E2E3AF0E0E832D091505040D4
S11306E0E695001CCAF72BD0FE2F29D0660F771F82
S11306F0881FBB1F261737074807AB07B0E809F068
S1130700BB0B802DBF01FF2793585F4F3AF09E3FEC
S1130710510578F00C94EE030C9439045F3FE4F334
S1130720983ED4F3869577956795B795F7959F5F2F
S1130730C9F7880F911D9695879597F90895E1E07B
S1130740660F771F881FBB1F621773078407BA07DA
S113075020F0621B730B840BBA0BEE1F88F7E09535
S11307600895E89409C097FB3EF4909580957095A0
S113077061957F4F8F4F9F4F9923A9F0F92F96E9E9
S1130780BB279395F695879577956795B795F1115E
S1130790F8CFFAF4BB0F11F460FF1BC06F5F7F4FFB
S11307A08F4F9F4F16C0882311F096E911C077230D
S11307B021F09EE8872F762F05C0662371F096E816
S11307C0862F70E060E02AF09A95660F771F881FE5
S11307D0DAF7880F9695879597F9089597F99F67A3
S11307E080E870E060E008959FEF80EC08950024B5
S11307F00A941616170618060906089500240A9482
S113080012161306140605060895092E0394000C07
S113081011F4882352F0BB0F40F4BF2B11F460FF96
S113082004C06F5F7F4F8F4F9F4F089557FD9058BF
S1130830440F551F59F05F3F71F04795880F97FBA0
S1130840991F61F09F3F79F087950895121613065A
S11308501406551FF2CF4695F1DF08C01616170689
S11308601806991FF1CF86957105610508940895BE
S1130870E894BB2766277727CB0197F908950E9450
S113088052040C9405040E94F70338F00E94FE03FE
S113089020F0952311F00C94EE030C94F40311242E
S11308A00C9439040E94160470F3959FC1F3950FBC
S11308B050E0551F629FF001729FBB27F00DB11DE0
S11308C0639FAA27F00DB11DAA1F649F6627B00D70
S11308D0A11D661F829F2227B00DA11D621F739F59
S11308E0B00DA11D621F839FA00D611D221F749F67
S11308F03327A00D611D231F849F600D211D822FAE
S1130900762F6A2F11249F5750409AF0F1F08823D4
S11309104AF0EE0FFF1FBB1F661F771F881F915001
S11309205040A9F79E3F510580F00C94EE030C94BF
S113093039045F3FE4F3983ED4F386957795679541
S1130940B795F795E7959F5FC1F7FE2B880F911D2B
S11309509695879597F90895EF920F931F93CF93E8
S1130960DF93E80147FD02C034E001C034E1042E06
S1130970000C550B57FF03C0519541955109E32EC7
S1130980022F242FAE010E94F104CE01DF91CF91FA
S11309901F910F91EF900895BB274A3031F49923AA
S11309A022F4BDE2909581959F4F0C94D804BB2707
S11309B0FB015527AA27880F991FAA1FA41710F017
S11309C0A41B83955051B9F7A05DAA3308F0A95D23
S11309D0A193009779F7B111B1931192CB010C94C3
S11309E02307A9E0B0E0E7EFF4E00C9439076A01CB
S11309F0122FB02E2BE3201720F0FF24F394F00ED7
S1130A0002C02CE3F22E0F2D27E0AE014F5F5F4FA3
S1130A100E944B06BC014981842F8970813031F0DA
S1130A20E1FC06C0E0FE06C090E205C09DE203C002
S1130A309BE201C090E05E2D507143FF3CC09111D8
S1130A4002C083E001C084E0811718F4212F281B21
S1130A5001C020E051110BC0F601822F30E288233F
S1130A6019F031938150FBCFC20ED11C20E09923A1
S1130A7029F0D6019C93F60131966F01C6010396C5
S1130A80E2FE0AC03EE4D6013C9341E411964C9345
S1130A90119712963C9306C03EE6F601308341E678
S1130AA041833283FC01322F40E2332309F442C0F4
S1130AB041933150FACF42FF44C0911102C083E008
S1130AC001C084E0811718F4212F281B01C020E005
S1130AD051110BC0F601822F30E2882319F03193B3
S1130AE08150FBCFC20ED11C20E0992329F0D601FE
S1130AF09C93F60131966F01C6010396E2FE0BC08A
S1130B0039E4D6013C933EE411963C93119736E4C4
S1130B1012963C9307C039E6F60130833EE63183F2
S1130B2036E63283FC01322F40E2332319F041933D
S1130B303150FBCFFC01E20FF11D10828EEF9FEFCD
S1130B40A6C021E030E0911102C020E030E016168A
S1130B5017061CF4FB01319602C0E1E0F0E02E0F11
S1130B603F1FBB2021F0EB2DF0E0319602C0E0E006
S1130B70F0E02E0F3F1FE12FF0E02E173F071CF48B
S1130B80121B212F01C020E08E2D887159F4F6012B
S1130B90822F30E2882319F031938150FBCFC20EAB
S1130BA0D11C20E0992329F0D6019C93F6013196BB
S1130BB06F0151110BC0F601822F90E3882319F0C5
S1130BC091938150FBCFC20ED11C20E00F2D060F54
S1130BD09A81342F307144FF03C0913309F40150DA
S1130BE0101624F4093018F008E001C001E0AB014C
S1130BF077FF02C040E050E0FB01E41BF50BA1E0ED
S1130C00B0E0AC0FBD1FEA0FFB1F8EE2A82E4B0114
S1130C10801A91080B2D10E01195019511094F3F91
S1130C20BFEF5B0721F4D601AC9211966D016417F6
S1130C3075072CF08416950614F4818101C080E3B5
S1130C40415051093196D60111967D014017510743
S1130C5024F0D6018C936701E2CF6417750739F449
S1130C60963320F4953319F4311101C081E3F60170
S1130C708083F701822F90E2882319F091938150A9
S1130C80FBCFF701E20FF11D108280E090E029967E
S1130C90ECE00C945507283008F027E03327DA01FC
S1130CA0990F311D87FD916000966105710539F436
S1130CB032602E5F3D9330E32A95E1F708959F3F1C
S1130CC030F080387105610509F03C5F3C5F3D936D
S1130CD0913008F08068911DDF93CF931F930F9399
S1130CE0FF92EF92192F987F9695E92F96959695F6
S1130CF0E90FFF27EE53FF4F99273327EE24FF24F4
S1130D00A701E70105900894079428F4360FE71E1D
S1130D10F81E491F511D660F771F881F991F0694DF
S1130D20A1F70590079428F4E70EF81E491F561FF3
S1130D30C11D770F881F991F661F0694A1F70590A0
S1130D40079428F4F80E491F561FC71FD11D880F9A
S1130D50991F661F771F0694A1F70590079420F446
S1130D60490F561FC71FD81F990F661F771F881F6B
S1130D700694A9F784911095177041F0D695C795FC
S1130D8057954795F794E7941A95C1F7E8E6F0E08C
S1130D9068941590159135916591959105907FE230
S1130DA07395E118F10A430B560BC90BD009C0F730
S1130DB0E10CF11E431F561FC91FD01D7EF4703372
S1130DC011F48A95E6CFE894015030F0080F0AF444
S1130DD00027021708F4202F2395022F7A3328F0D6
S1130DE079E37D932A95E9F710C07D932A9589F6D6
S1130DF0069497956795379517951794E118F10A16
S1130E00430B560BC90BD00998F023957E9173952B
S1130E107A3308F070E37C932013B8F77E91706105
S1130E207D9330F0839571E37D9370E32A95E1F728
S1130E301124EF90FF900F911F91CF91DF9199278B
S1130E4087FD90950895DC01FC01672F719177234C
S1130E50E1F7329704C07C916D9370836291AE1771
S1130E60BF07C8F308952F923F924F925F926F92FB
S1130E707F928F929F92AF92BF92CF92DF92EF9226
S1130E80FF920F931F93CF93DF93CDB7DEB7CA1BA7
S1130E90DB0B0FB6F894DEBF0FBECDBF09942A88D2
S1130EA0398848885F846E847D848C849B84AA847A
S1130EB0B984C884DF80EE80FD800C811B81AA8107
S1130EC0B981CE0FD11D0FB6F894DEBF0FBECDBFD2
S10B0ED0ED010895F894FFCF31
S1130ED8436F6E7461646F722E20456E7669652067
S1130EE8756E20272B27206F20272D272E2E2E0ABC
S1130EF80053313A00560053323A0053333A003023
S1130F08004E4F2056414C49444F0A0053330020A9
S1130F18202000436F6E7461646F722053332C2059
S1130F28456E76696520756E20272B27206F20274C
S10B0F382D272E2E2E0A0000C5
S9030000FC
