:100000000C943B000C944D000C944D000C944D004E
:100010000C944D000C944D000C944D000C944D002C
:100020000C944D000C944D000C944D000C944D001C
:100030000C944D000C944D000C944D000C944D000C
:100040000C944D000C944D000C944D000C944D00FC
:100050000C944D000C944D000C944D000C944D00EC
:100060000C944D000C944D0086008D0094009D0072
:10007000A700B100BB0011241FBECFEFD8E0DEBF48
:10008000CDBF21E0A0E0B1E001C01D92A130B207D8
:10009000E1F70E94E9000C9440010C94000080E418
:1000A00080937C0087E880937A0084B18B7F84B949
:1000B00085B1846085B984B1806184B984B1877D5C
:1000C00084B98AB18C6F8AB984B1836084B985B1EF
:1000D0008C7F85B98BB183708BB90895E82F84FF2D
:1000E00051C084B18C6284B984B18F7E84B98CB5DF
:1000F00080618CBDE7708E2F90E08730910508F00D
:100100004DC0FC01EC5CFF4F0C943A018CB58C7F28
:100110008CBD8DB581608DBD41C08CB58C7F8CBD93
:100120008DB58E7F8DBD3AC08CB581608CBD8CB590
:100130008D7F8CBD8DB581608DBD8CB581608CBD92
:100140008CB58D7F8CBD8DB58E7F8DBD27C08CB558
:100150008E7F8CBD8CB582608CBD8DB581608DBD70
:100160001DC08CB58E7F8CBD8CB582608CBD8DB56D
:100170008E7F8DBD13C08CB583608CBD8DB58E7F99
:100180008DBD0CC084B1806184B984B1837D84B994
:1001900085B1846085B98CB58F7E8CBD8CB5462BBE
:1001A000242B282B20642CBD0895ECE7F0E09081EF
:1001B000907F892B8083EAE7F0E0808180648083F0
:1001C00080917A0086FDFCCF809178009091790033
:1001D00008950E944F008AB18C6F8AB984B1836000
:1001E00084B920E040E060E280E40E946E001EBC22
:1001F0000DB407FE24C08EB59DE9980F923020F40F
:10020000809300011EBC1BC080910001833649F41D
:1002100082E00E94D50096958795969587958EBD2C
:100220000EC080910001843649F483E00E94D5001D
:1002300096958795969587958EBD01C01EBC82E0E8
:100240000E94D50096958795969587954BB19C0110
:100250003327220F331F220F331F942F9370292B24
:100260002BB995B19C7F8295869586958370892B55
:1002700085B9BECFEE0FFF1F0590F491E02D0994D4
:04028000F894FFCF20
:00000001FF
