S00B00004932432E737265635B
S11300000C9434000C9446000C9446000C94460066
S11300100C9446000C9446000C9446000C94460044
S11300200C9446000C9446000C9446000C94460034
S11300300C9446000C9446000C9446000C94460024
S11300400C9446000C9446000C9446000C94460014
S11300500C9446000C9446000C9446000C94460004
S11300600C94CB000C94460011241FBECFEFD8E0B3
S1130070DEBFCDBF21E0A0E0B1E001C01D92A530FC
S1130080B207E1F70E946A000C9427010C94000067
S113009097B19F7C97B9880F8093BA0085E48093C9
S11300A0BC000895ECE7F0E09081907F892B808379
S11300B0EAE7F0E080818064808380917A0086FDA5
S11300C0FCCF8091780090917900969587959695CC
S11300D0879508958AB184608AB98BB18B7F8BB977
S11300E08AB18C6F8AB984B1836084B985B18C7FFD
S11300F085B98BB183708BB9ECE7F0E080818062C5
S1130100808380E4808387E880937A0084B1886068
S113011084B983E88093B00082E08093B1001092A8
S1130120B30080E30E944800789480E00E9452006B
S11301308093020181E00E9452008093010182E0D9
S11301400E945200809300019091020120910101CC
S113015030E0290F311D280F311DABEABAEA0E94A5
S1130160180196958795809303018091040180FF7F
S113017004C08BB188608BB903C08BB1877F8BB906
S1130180809104018093B30087E893E10197F1F72C
S113019000C00000CACF1F920F920FB60F92112415
S11301A08F93EF93FF938091B9008C7F803A89F10C
S11301B058F48037A1F018F4803689F02EC08038C6
S11301C091F0803981F029C0883BA9F018F4883A6D
S11301D091F023C0803CB9F0883CA9F01EC085ECA6
S11301E08093BC001DC08091BB008093040185EC0A
S11301F08093BC0015C0809103018093BB0085EC03
S11302008093BC000DC0ECEBF0E0108285E48083A9
S113021007C085EC8093BC0003C085EC8093BC00D0
S1130220FF91EF918F910F900FBE0F901F90189533
S1130230A29FB001B39FC001A39F700D811D112423
S1130240911DB29F700D811D1124911D0895F89484
S1050250FFCFDA
S9030000FC
