:100000000C9434000C9446000C9446000C9446006A
:100010000C9446000C9446000C9446000C94460048
:100020000C9446000C9446000C9446000C94460038
:100030000C9446000C9446000C9446000C94460028
:100040000C9446000C9446000C9446000C94460018
:100050000C9446000C9446000C9446000C94460008
:100060000C94F4000C94460011241FBECFEFD8E08E
:10007000DEBFCDBF21E0A0E0B1E001C01D92A33002
:10008000B207E1F70E9483000C9441010C94000038
:1000900097B19F7C97B9880F8093BA0085E48093CD
:1000A000BC000895811107C080ED97E0909389000E
:1000B0008093880008958CEA9DE090938900809356
:1000C00088000895AC01672B31F08BB188608BB943
:1000D00020E030E014C08BB1877F8BB9F9CF9BB1A2
:1000E00094609BB988E08A95F1F700009BB19B7FF3
:1000F0009BB988E08A95F1F700002F5F3F4F2417E6
:1001000035076CF308958AB184608AB98BB18B7F0F
:100110008BB98AB18C6F8AB984B1836084B984B198
:100120008F7D84B98AB18C608AB985B18C7F85B99D
:100130008BB183708BB98AB18F7A8AB98BB18065A4
:100140008BB984B1866084B982EA809380008AE1A9
:100150008093810080E49CE99093870080938600DF
:1001600080E40E94480078941D9B04C081E0809345
:10017000010102C0109201014C9B109200014E99A6
:1001800003C081E08093000180910201807F21F40F
:1001900081E00E94520005C0803F19F480E00E9477
:1001A0005200809102018F708F3059F480910001CC
:1001B000811113C061E070E084E190E00E94620070
:1001C0000CC081110AC080910001813031F460E0DF
:1001D00070E084E190E00E94620087E893E101977B
:1001E000F1F700C00000C0CF1F920F920FB60F9220
:1001F00011248F93EF93FF938091B9008C7F803A05
:1002000089F158F48037A1F018F4803689F02EC0B7
:10021000803891F0803981F029C0883BA9F018F42A
:10022000883A91F023C0803CB9F0883CA9F01EC008
:1002300085EC8093BC001DC08091BB0080930201BF
:1002400085EC8093BC0015C0809101018093BB00B8
:1002500085EC8093BC000DC0ECEBF0E0108285E4EF
:10026000808307C085EC8093BC0003C085EC80933D
:10027000BC00FF91EF918F910F900FBE0F901F90D8
:060280001895F894FFCF71
:00000001FF
