S00B00004932432E737265635B
S11300000C94B9000C94D6000C94D6000C94D60031
S11300100C94D6000C94D6000C94D6000C94D60004
S11300200C94D6000C94D6000C94D6000C94D600F4
S11300300C94D6000C94D6000C94D6000C94D600E4
S11300400C94D6000C94D6000C94D6000C94D600D4
S11300500C94D6000C94F3020C94D6000C94D600A5
S11300600C94D6000C94D600FF0005010B0111017D
S113007017011D012301290100407A10F35A00A041
S1130080724E18090010A5D4E80000E8764817005D
S113009000E40B54020000CA9A3B000000E1F5059D
S11300A0000080969800000040420F000000A086E7
S11300B001000000102700000000E8030000000019
S11300C06400000000000A000000000001000000BD
S11300D000002C76D888DC674F0823DFC1DFAE59D7
S11300E0E1B1B796E5E3E453C63AE651997696E86A
S11300F0E6C28426EB898C9B62ED407C6FFCEFBCEE
S11301009C9F40F2BAA56FA5F490055A2AF75C9318
S11301106B6CF9676DC11BFCE0E40D47FEF520E64E
S1130120B500D0ED902E0300943577050080841E31
S1130130080000204E0A000000C80C333333330F8C
S1130140986E12831141EF8D2114893BE65516CF29
S1130150FEE6DB18D1844B381BF77C1D901DA4BB35
S1130160E424203284725E228100C9F124ECA1E5EA
S11301703D2711241FBECFEFD8E0DEBFCDBF11E075
S1130180A0E0B1E0EAE4F3E102C005900D92A431ED
S1130190B107D9F721E0A4E1B1E001C01D92AE316D
S11301A0B207E1F70E94C0030C94A3090C94000069
S11301B0262FF894ACE7B0E01C929C9190649C9339
S11301C0882319F0813039F00CC0ACE7B0E08C9191
S11301D08F7D8C930BC0ACE7B0E08C9180628C93E4
S11301E005C0ACE7B0E08C9180628C9350E048305D
S11301F05105A8F5FA01EC5CFF4F0C94DF06ECE71F
S1130200F0E08081807F80832FC0ECE7F0E0808184
S11302108160808329C0ECE7F0E080818260808384
S113022023C0ECE7F0E08081836080831DC0ECE7AD
S1130230F0E080818460808317C0ECE7F0E0808187
S11302408560808311C0ECE7F0E080818660808364
S11302500BC0ECE7F0E080818760808305C0ECE7A9
S1130260F0E08081807F808310927A00203831F41E
S1130270EAE7F0E080818F6C808305C0EAE7F0E074
S113028080818F6C80837894089580FF04C09BB133
S113029094609BB903C09BB19B7F9BB981FF04C051
S11302A09BB198609BB903C09BB1977F9BB982FFB8
S11302B004C09BB190619BB903C09BB19F7E9BB965
S11302C083FF04C09BB190629BB903C09BB19F7D27
S11302D09BB984FF04C09BB190649BB903C09BB1DC
S11302E09F7B9BB985FF04C09BB190689BB903C0F9
S11302F09BB19F779BB986FF04C095B1916095B976
S113030003C095B19E7F95B9882324F485B182609A
S113031085B9089585B18D7F85B9089598B19E7F7B
S113032098B90E94450188B1846088B98FE19EE440
S11303300197F1F700C0000088B18B7F88B9089558
S11303408AB18C6F8AB98BB183708BB984B18360A5
S113035084B985B18C7F85B987B1876087B988B145
S1130360887F88B980E00E9445012FEF89EF90E0F3
S1130370215080409040E1F700C0000080E30E94DB
S11303808E018FE19EE40197F1F700C0000080E345
S11303900E948E018FE19EE40197F1F700C00000F6
S11303A080E30E948E018FE99FE00197F1F700C07E
S11303B0000088E30E948E018FE99FE00197F1F726
S11303C000C0000088E00E948E018FE99FE0019741
S11303D0F1F700C0000081E00E948E018FED9EE2E3
S11303E00197F1F700C0000086E00E948E018FE9BA
S11303F09FE00197F1F700C000008CE00E948E019D
S11304008FE99FE00197F1F700C00000089598B1CB
S1130410916098B90E94450188B1846088B98FE1E0
S11304209EE40197F1F700C0000088B18B7F88B982
S113043008950F931F93CF93DF938C01C0E0D0E016
S113044003C00E9407022196F801EC0FFD1F808172
S11304508111F7CFDF91CF911F910F9108956130F2
S113046021F481580E948E010895623019F4815458
S11304700E948E0108950F931F93CF938B019C01CB
S1130480C42F87B18F7C87B9443079F018F4413098
S113049031F023C0403191F04034C9F01EC0E9EB83
S11304A0F0E080818C7F80831EC0E9EBF0E08081E6
S11304B08D7F808380818160808315C0E9EBF0E0CB
S11304C080818E7F80838081826080830CC0E9EB91
S11304D0F0E080818360808306C0E9EBF0E08081F6
S11304E08C7F8083C1E060E074E284EF90E0A90136
S11304F098010E94BD06CA01B901605171098109C0
S113050091094C2F50E09A01220F331F032E000C47
S1130510440B550B0E94BD062093B800ECEBF0E0B1
S1130520808184608083CF911F910F91089584EA24
S11305308093BC008091BC008823E4F79091B900BB
S1130540987F81E0983009F080E0089584EA8093F0
S1130550BC008091BC008823E4F79091B900987F97
S113056081E0903109F080E0089584E98093BC0033
S11305708091BC0084FDFCCF08958093BB0084E887
S11305808093BC008091BC008823E4F78091B9007B
S1130590887F883121F0883219F481E0089581E060
S11305A00895FC01662321F084EC8093BC0003C011
S11305B084E88093BC009091BC009923E4F7909167
S11305C0B900987F662311F0903549F4611102C097
S11305D0983539F48091BB00808381E0089580E0F0
S11305E0089580E008951F920F920FB60F92112480
S11305F08F93EF93FF93EAE7F0E080818064808338
S1130600FF91EF918F910F900FBE0F901F9018954F
S1130610CF92DF92EF92FF92C0901601D090170113
S1130620E0901801F090190120E030E044EE51E42C
S1130630C701B6010E944B06882334F081E0809301
S11306401401109215010CC020E030E044ED51E497
S1130650C701B6010E949405181614F010921401F3
S113066020E030E04CEB51E4C701B6010E94940550
S1130670181634F081E080931501109214010CC017
S113068020E030E04CEC51E4C701B6010E944B0677
S1130690882314F01092150180911D018531B8F45E
S11306A080911401882331F010921B018EE0809315
S11306B01C012FC080911501882331F08FE08093B5
S11306C01B0110921C0125C010921C0122C08091B4
S11306D014018823A1F010921B0120E030E048EEC1
S11306E051E4C701B6010E944B06882324F086E832
S11306F080931C010EC08EE680931C010AC0809179
S11307001501882321F081E080931C0102C010921E
S11307101C01C0901601D0901701E0901801F090D0
S1130720190120E030E040EA51E4C701B6010E941B
S11307309405181624F081E080931C010DC020E07C
S113074030E040EF51E4C701B6010E944B06882314
S11307501CF08EEF80931C0180911A01811106C058
S113076080911B018F7080931B0105C080911B0138
S1130770806F80931B01FF90EF90DF90CF900895DE
S1130780CF93DF93CDB7DEB7EA970FB6F894DEBF09
S11307900FBECDBF0E94A00184B1806284B985B12F
S11307A08F7D85B941E060E177E280E090E00E94CE
S11307B03B0243E060E880E00E94D8000E94970278
S11307C08823E1F380E70E94BD02811103C00E94E7
S11307D0B502F4CF8CEA0E94BD0283E30E94BD02FD
S11307E080E00E94BD020E94B5022FEF87EE93E0E5
S11307F0215080409040E1F700C000000E940803AF
S113080085B1806285B90E9497028823B9F280E697
S11308100E94BD02811103C00E94B502CFCF809116
S11308201C010E94BD020E94B5028FE39CE901975E
S1130830F1F700C000000E949702882309F4BECF9C
S113084080E60E94BD02811103C00E94B502B6CFAA
S11308500E94A602811103C00E94B502AFCF81E6B7
S11308600E94BD02811103C00E94B502A7CF60E0BF
S11308708DE191E00E94D1020E94B5020E9497028C
S1130880882309F49BCF80E80E94BD02811103C034
S11308900E94B50293CF80911B010E94BD020E9469
S11308A0B5028FE39CE90197F1F700C000000E94B4
S11308B09702882309F482CF80E80E94BD02811147
S11308C003C00E94B5027ACF0E94A602811103C020
S11308D00E94B50273CF81E80E94BD02811103C05A
S11308E00E94B5026BCF60E08AE191E00E94D102E0
S11308F00E94B5020E949702882309F45FCF81E722
S11309000E94BD0281110EC00E94B50257CF61E062
S113091085E390E08C0F9D1F810F911D0E94D102F1
S11309201F5F01C010E0153090F360E0CE01CA965D
S11309300E94D1020E94B50280911D014AE0BE01CD
S11309406F5F7F4F90E00E94050780911A014AE093
S1130950BE016F5E7F4F90E00E94050768AD6F7027
S1130960862F90E0A0E0B0E0BC015527442789AD74
S113097090E0A0E0B0E0BA2FA92F982F8827842B0D
S1130980952BA62BB72B2AADBC01CD01622B0E945F
S1130990990520E030E048E453E40E94500620E04A
S11309A030E040E855E30E94500620E030E048E49F
S11309B052E40E94270560931601709317018093F7
S11309C01801909319018E01055D1F4F22E046E046
S11309D00E94E50660911C0170E080E090E00E94B6
S11309E099050A50110922E046E00E94E50681E0DB
S11309F00E948E0161E081E00E942F0280E091E07C
S1130A000E941902CE0101960E94190285E091E02C
S1130A100E94190288E091E00E941902C8010E9414
S1130A20190262E081E00E942F028DE091E00E94B1
S1130A301902CE018B960E9419029FEF23EC89E0E4
S1130A40915020408040E1F700C00000B7CE5058DC
S1130A50BB27AA270E943F050C9411060E94030697
S1130A6038F00E940A0620F039F49F3F19F426F466
S1130A700C9400060EF4E095E7FB0C94FA05E92FBC
S1130A800E94220658F3BA17620773078407950772
S1130A9020F079F4A6F50C9444060EF4E0950B2EA0
S1130AA0BA2FA02D0B01B90190010C01CA01A001BC
S1130AB01124FF27591B99F0593F50F4503E68F117
S1130AC01A16F040A22F232F342F4427585FF3CF58
S1130AD0469537952795A795F0405395C9F77EF429
S1130AE01F16BA0B620B730B840BBAF09150A1F072
S1130AF0FF0FBB1F661F771F881FC2F70EC0BA0FF8
S1130B00621F731F841F48F4879577956795B7957F
S1130B10F7959E3F08F0B0CF9395880F08F099277A
S1130B20EE0F9795879508950E94D60508F481E005
S1130B300895E89409C097FB3EF4909580957095CC
S1130B4061957F4F8F4F9F4F9923A9F0F92F96E915
S1130B50BB279395F695879577956795B795F1118A
S1130B60F8CFFAF4BB0F11F460FF1BC06F5F7F4F27
S1130B708F4F9F4F16C0882311F096E911C0772339
S1130B8021F09EE8872F762F05C0662371F096E842
S1130B90862F70E060E02AF09A95660F771F881F11
S1130BA0DAF7880F9695879597F90895990F0008B5
S1130BB0550FAA0BE0E8FEEF16161706E807F9072B
S1130BC0C0F012161306E407F50798F0621B730BC6
S1130BD0840B950B39F40A2661F0232B242B252B47
S1130BE021F408950A2609F4A140A6958FEF811DEA
S1130BF0811D089597F99F6780E870E060E008958B
S1130C009FEF80EC089500240A9416161706180620
S1130C100906089500240A941216130614060506FC
S1130C200895092E0394000C11F4882352F0BB0F8D
S1130C3040F4BF2B11F460FF04C06F5F7F4F8F4FF0
S1130C409F4F089557FD9058440F551F59F05F3F2B
S1130C5071F04795880F97FB991F61F09F3F79F0DA
S1130C6087950895121613061406551FF2CF46955C
S1130C70F1DF08C0161617061806991FF1CF8695DE
S1130C807105610508940895E894BB2766277727C2
S1130C90CB0197F908950E94D60508F48FEF0895C3
S1130CA00E9463060C9411060E94030638F00E9409
S1130CB00A0620F0952311F00C94FA050C94000612
S1130CC011240C9445060E94220670F3959FC1F3EB
S1130CD0950F50E0551F629FF001729FBB27F00DE6
S1130CE0B11D639FAA27F00DB11DAA1F649F66273B
S1130CF0B00DA11D661F829F2227B00DA11D621F8A
S1130D00739FB00DA11D621F839FA00D611D221F43
S1130D10749F3327A00D611D231F849F600D211D27
S1130D20822F762F6A2F11249F5750409AF0F1F0AA
S1130D3088234AF0EE0FFF1FBB1F661F771F881F13
S1130D4091505040A9F79E3F510580F00C94FA054C
S1130D500C9445065F3FE4F3983ED4F3869577956B
S1130D606795B795F795E7959F5FC1F7FE2B880FB9
S1130D70911D9695879597F90895A1E21A2EAA1BBD
S1130D80BB1BFD010DC0AA1FBB1FEE1FFF1FA21737
S1130D90B307E407F50720F0A21BB30BE40BF50B34
S1130DA0661F771F881F991F1A9469F760957095BD
S1130DB0809590959B01AC01BD01CF010895EE0F84
S1130DC0FF1F0590F491E02D0994EF920F931F9368
S1130DD0CF93DF93E80147FD02C034E001C034E162
S1130DE0042E000C550B57FF03C051954195510932
S1130DF0E32E022F242FAE010E942A07CE01DF9199
S1130E00CF911F910F91EF900895BB274A3031F491
S1130E10992322F4BDE2909581959F4F0C9411077C
S1130E20BB27FB015527AA27880F991FAA1FA417C0
S1130E3010F0A41B83955051B9F7A05DAA3308F0B4
S1130E40A95DA193009779F7B111B1931192CB01E8
S1130E500C945C09A9E0B0E0E0E3F7E00C947209BB
S1130E606A01122FB02E2BE3201720F0FF24F394F5
S1130E70F00E02C02CE3F22E0F2D27E0AE014F5FDF
S1130E805F4F0E948408BC014981842F897081309E
S1130E9031F0E1FC06C0E0FE06C090E205C09DE230
S1130EA003C09BE201C090E05E2D507143FF3CC043
S1130EB0911102C083E001C084E0811718F4212F4E
S1130EC0281B01C020E051110BC0F601822F30E233
S1130ED0882319F031938150FBCFC20ED11C20E03E
S1130EE0992329F0D6019C93F60131966F01C6012E
S1130EF00396E2FE0AC03EE4D6013C9341E4119617
S1130F004C93119712963C9306C03EE6F60130834B
S1130F1041E641833283FC01322F40E2332309F45A
S1130F2042C041933150FACF42FF44C0911102C0F4
S1130F3083E001C084E0811718F4212F281B01C02D
S1130F4020E051110BC0F601822F30E2882319F002
S1130F5031938150FBCFC20ED11C20E0992329F09C
S1130F60D6019C93F60131966F01C6010396E2FE09
S1130F700BC039E4D6013C933EE411963C9311979F
S1130F8036E412963C9307C039E6F60130833EE618
S1130F90318336E63283FC01322F40E2332319F0E9
S1130FA041933150FBCFFC01E20FF11D10828EEF13
S1130FB09FEFA6C021E030E0911102C020E030E0B4
S1130FC0161617061CF4FB01319602C0E1E0F0E0AE
S1130FD02E0F3F1FBB2021F0EB2DF0E0319602C015
S1130FE0E0E0F0E02E0F3F1FE12FF0E02E173F0767
S1130FF01CF4121B212F01C020E08E2D887159F49E
S1131000F601822F30E2882319F031938150FBCF0F
S1131010C20ED11C20E0992329F0D6019C93F6013D
S113102031966F0151110BC0F601822F90E3882392
S113103019F091938150FBCFC20ED11C20E00F2DEB
S1131040060F9A81342F307144FF03C0913309F4A1
S11310500150101624F4093018F008E001C001E032
S1131060AB0177FF02C040E050E0FB01E41BF50B4D
S1131070A1E0B0E0AC0FBD1FEA0FFB1F8EE2A82E6B
S11310804B01801A91080B2D10E01195019511095F
S11310904F3FBFEF5B0721F4D601AC9211966D016F
S11310A0641775072CF08416950614F4818101C029
S11310B080E3415051093196D60111967D014017C4
S11310C0510724F0D6018C936701E2CF64177507AA
S11310D039F4963320F4953319F4311101C081E3C6
S11310E0F6018083F701822F90E2882319F091930F
S11310F08150FBCFF701E20FF11D108280E090E0F8
S11311002996ECE00C948E09283008F027E0332768
S1131110DA01990F311D87FD916000966105710513
S113112039F432602E5F3D9330E32A95E1F7089558
S11311309F3F30F080387105610509F03C5F3C5FEA
S11311403D93913008F08068911DDF93CF931F93F6
S11311500F93FF92EF92192F987F9695E92F96950A
S11311609695E90FFF27EE52FF4F99273327EE2478
S1131170FF24A701E70105900894079428F4360F8B
S1131180E71EF81E491F511D660F771F881F991F00
S11311900694A1F70590079428F4E70EF81E491F5A
S11311A0561FC11D770F881F991F661F0694A1F74C
S11311B00590079428F4F80E491F561FC71FD11D28
S11311C0880F991F661F771F0694A1F7059007944F
S11311D020F4490F561FC71FD81F990F661F771F8A
S11311E0881F0694A9F784911095177041F0D6953D
S11311F0C79557954795F794E7941A95C1F7E8E78B
S1131200F0E068941590159135916591959105904C
S11312107FE27395E118F10A430B560BC90BD00911
S1131220C0F7E10CF11E431F561FC91FD01D7EF4E9
S1131230703311F48A95E6CFE894015030F0080F2A
S11312400AF40027021708F4202F2395022F7A337B
S113125028F079E37D932A95E9F710C07D932A95C8
S113126089F6069497956795379517951794E1181D
S1131270F10A430B560BC90BD00998F023957E91C4
S113128073957A3308F070E37C932013B8F77E915A
S113129070617D9330F0839571E37D9370E32A95BB
S11312A0E1F71124EF90FF900F911F91CF91DF91FF
S11312B0992787FD90950895DC01FC01672F7191B2
S11312C07723E1F7329704C07C916D937083629128
S11312D0AE17BF07C8F308952F923F924F925F92C3
S11312E06F927F928F929F92AF92BF92CF92DF9232
S11312F0EF92FF920F931F93CF93DF93CDB7DEB797
S1131300CA1BDB0B0FB6F894DEBF0FBECDBF09942A
S11313102A88398848885F846E847D848C849B8481
S1131320AA84B984C884DF80EE80FD800C811B818F
S1131330AA81B981CE0FD11D0FB6F894DEBF0FBEBE
S10D1340CDBFED010895F894FFCF2E
S113134A4C757A3A0020200046616E3A0054656D65
S107135A70653A007C
S9030000FC
