:100000000C9434000C9451000C9451000C94510049
:100010000C9451000C9451000C9451000C9451001C
:100020000C9451000C9451000C9451000C9451000C
:100030000C9451000C9451000C9451000C945100FC
:100040000C9447010C9451000C9451000C945100F5
:100050000C9451000C9451000C9451000C945100DC
:100060000C9451000C94510011241FBECFEFD8E026
:10007000DEBFCDBF11E0A0E0B1E0E6E3F3E002C0F7
:1000800005900D92A630B107D9F721E0A6E0B1E0C6
:1000900001C01D92A431B207E1F70E9484000C94C4
:1000A00099010C940000863030F4E82FF0E0E05025
:1000B000FF4F80818BB90895F8948FE78AB98AB190
:1000C0008F778AB98BB180688BB984B18F6084B91E
:1000D00085B1807F85B987B18F6087B988B1807F0E
:1000E00088B987B18F7C87B988B1806388B914BC1F
:1000F00085E085BD81E080936E0080E00E94530022
:100100000E94C800789408950E945C000E94D70065
:10011000FDCFFC01108261835383428381E084839D
:100120000895FC011082A281B3818C91807F8C9311
:1001300081E084830895FC01DB018C9191819823F7
:10014000F1F484818823D9F08081843010F48F5FAA
:1001500080832081243078F4A281B38130E0215063
:10016000310941E050E0BA0102C0660F771F2A95BD
:10017000E2F76C9304C0A281B3818FE08C939483E7
:100180000895FC01908181E0943008F480E00895A6
:1001900045E250E060E18FE091E00E94890048E292
:1001A00050E060E28AE091E00E9489000895CF93D8
:1001B000C9B1809106018130F1F030F0823051F107
:1001C000833009F45EC061C080E00E9453008FE07C
:1001D00091E00E9491008AE091E00E949100CC237E
:1001E0000CF453C085E0809309010E94530081E024
:1001F000809306014AC085B1807F85B988B1807F30
:1002000088B9CC230CF441C085E0809309010E9499
:1002100053003BC0CC234CF085E0809309010E9441
:10022000530081E08093060130C066E270E08FE009
:1002300091E00E949B0066E270E08AE091E00E94FB
:100240009B008FE091E00E94C100882351F08FE075
:1002500085B918B881E00E94530083E080930601BD
:1002600014C08AE091E00E94C100882371F08FE001
:1002700088B915B882E00E94530083E0809306019C
:1002800004C0CC2314F010920601CF9108951F9260
:100290000F920FB60F9211242F933F934F935F93BA
:1002A0006F937F938F939F93AF93BF93EF93FF933E
:1002B00080910601813061F58091070190910801DC
:1002C0000196909308018093070180910701909116
:1002D0000801CD97E8F01092080110920701809173
:1002E0000901882351F0809109018150809309010F
:1002F000809109010E9453000BC08FE091E00E94A1
:1003000091008AE091E00E94910082E080930601D2
:10031000FF91EF91BF91AF919F918F917F916F91DD
:100320005F914F913F912F910F900FBE0F901F90B3
:060330001895F894FFCFC0
:0603360077426D6B5A3B9B
:00000001FF
